:100000000A128A11F32F00308A000408840A82073A
:100010000034013400340A34003464340034E834E9
:10002000033410342734533431343A3420342534F3
:100030007534203420340034533432343A3420348C
:1000400025347534203420340034533433343A3476
:0C00500020342534753420342034003472
:1007DA00F0007008831203139300080083160313B2
:1007EA00141CF82BF92BF32B080064008001840AEF
:1007FA000406031900340406FB2B0A128A11F32398
:10080A000A128A11831203131308080000300A120D
:10081A008A112E240A128A1101300A128A112E24F0
:10082A000A128A110800F300831603138712731D34
:10083A001F2C202C242C720894008715282C700851
:10084A0072049400871173087104831203139400CD
:10085A000800F30083120313081173080A128A119D
:10086A0083240A128A118312031388150630F200B0
:10087A003030F100F10B3F2CF20B3F2C00008312B9
:10088A000313881108008316031788018901831648
:10089A000313071187108601880183120313860147
:1008AA00880107158714F001F101F20120300A12BC
:1008BA008A1118240A128A110800F800F601F701B1
:1008CA00772C76087807F5007508840000080A1264
:1008DA008A11A5240A128A110130F6070318F70AA9
:1008EA000030F70776087807F50075088400831347
:1008FA000008031D812C822C662C0800F000701C55
:10090A00872C882C8C2C8312031308168F2C8312A5
:10091A0003130812F01C922C932C952C8816962CF3
:10092A008812701D992C9A2C9C2C08179D2C081340
:10093A00F01DA02CA12CA32C8817A42C8813080026
:10094A00F40074080F39F2007408F039F3008312C6
:10095A00031308157308F10004300310F10CFF3E6D
:10096A00031DB22C71080A128A1183240A128A11F1
:10097A008312031388150D30F100F10BC22C831278
:10098A000313881172080A128A1183240A128A111F
:10099A008312031388150D30F100F10BD22C831248
:1009AA00031388110800780879040319DD2CDE2C5A
:1009BA000D2DFD01FD0AEC2C01300310F80DF90D87
:1009CA00FF3E031DE22C0130FC007C08FD07F91FE5
:1009DA00EF2CF02CE12C79087B02031DF62C780809
:1009EA007A02031CF92CFA2C002D7808FA027908ED
:1009FA00031CFB03FB0201300310F90CF80CFF3E49
:100A0A00031D012D0130FD02031D0C2D0D2DF02CAF
:100A1A007B08F9007A08F8000800F501F601700869
:100A2A0071040319192D1A2D512DF701F70A282DD2
:100A3A0001300310F00DF10DFF3E031D1E2D013094
:100A4A00F4007408F707F11F2B2D2C2D1D2D0130F2
:100A5A000310F50DF60DFF3E031D2D2D71087302CF
:100A6A00031D392D70087202031C3C2D3D2D442DA7
:100A7A007008F2027108031CF303F30275140130C3
:100A8A000310F10CF00CFF3E031D452D0130F70257
:100A9A00031D502D512D2C2D7608F1007508F000FC
:100AAA000800831603130811881108128812081304
:100ABA00881300300A128A1183240A128A111A3002
:100ACA00F500F830F400F40B682DF50B682D0000E2
:100ADA0003300A128A112E240A128A110730F500ED
:100AEA007D30F400F40B772DF50B772D03300A12C5
:100AFA008A112E240A128A110F30F5004730F400A9
:100B0A00F40B852DF50B852D8A2D03300A128A11D7
:100B1A002E240A128A1102300A128A112E240A126B
:100B2A008A1102300A128A112E240A128A110830F6
:100B3A000A128A112E240A128A1100300A128A1104
:100B4A002E240A128A110C300A128A112E240A1231
:100B5A008A1100300A128A112E240A128A110630CA
:100B6A000A128A112E240A128A110A128A110B24D5
:100B7A000A128A110800F6007603031DC52DC62D38
:100B8A00E32D74087F3EF9007908F500043003105C
:100B9A00F50CFF3E031DCC2D7508F70079080F39B7
:100BAA00F80077080A128A112E240A128A11780884
:100BBA000A128A112E240A128A114C2E0230760643
:100BCA00031DE82DE92D062E7408BF3EF9007908A9
:100BDA00F50004300310F50CFF3E031DEF2D7508D8
:100BEA00F70079080F39F80077080A128A112E24BB
:100BFA000A128A1178080A128A112E240A128A11F4
:100C0A004C2E03307606031D0B2E0C2E292E74084B
:100C1A00933EF9007908F50004300310F50CFF3E05
:100C2A00031D122E7508F70079080F39F8007708A6
:100C3A000A128A112E240A128A1178080A128A11B3
:100C4A002E240A128A114C2E04307606031D2E2EEB
:100C5A002F2E4C2E7408D33EF9007908F500043083
:100C6A000310F50CFF3E031D352E7508F7007908B1
:100C7A000F39F80077080A128A112E240A128A11EB
:100C8A0078080A128A112E240A128A114C2E080098
:100C9A0083120313C2003830BE00F92E25304306F2
:100CAA000319582E592E632E4208840043088313D1
:100CBA0080000130BA003A08C207F92EBD016A2E37
:100CCA00C030BA003A08BD04842E0130B707FF309D
:100CDA00370784000A128A1103200A128A11C300F4
:100CEA00BA00BB013B08003A03197C2EF92E3A08D8
:100CFA00003A0319092F753A0319652EF92E3E0891
:100D0A00840083130008BF00840A0008C000023070
:100D1A00BA003A08BE07C301C30A4308BA003A0731
:100D2A00013E84000A128A1103200A128A11BB00AA
:100D3A000A128A1103200A128A11BC003C084002D6
:100D4A00031DA92E3B083F020318AC2EAD2EAE2E72
:100D5A00B82E0130BA003A08C30705304306031D0E
:100D6A00B72EB82E922E4308C100F02E0A30F80092
:100D7A000030F9004108BA003A07013E84000A121D
:100D8A008A1103200A128A11F0000A128A1103201A
:100D9A000A128A11F1004008F3003F08F2000A1211
:100DAA008A1112250A128A117108FB007008FA00CA
:100DBA000A128A11D8240A128A117808303E83123C
:100DCA000313C300420884004308831380000130E0
:100DDA00BA003A08C207FF30BA003A08C107410A06
:100DEA00031DF82EF92EBB2E0130B707FF30370747
:100DFA0084000A128A1103200A128A11C3004308C6
:100E0A00031D082F092F532E4208840083138001E3
:100E1A0008000A128A1148240A128A110A128A112F
:100E2A0056250A128A1183120313071101300A1276
:100E3A008A11ED230A128A110A128A1102240A124D
:100E4A008A1183120313A200C73083120313C4004A
:100E5A002E2FC40B2D2F312F00300A128A11ED23A9
:100E6A000A128A110A128A1102240A128A11831298
:100E7A000313A100C73083120313C400442FC40B09
:100E8A00432F472FF401F40A01300A128A11C025B0
:100E9A000A128A110B3083120313B7002108C40007
:100EAA00C5014408B8004508B90023300A128A115E
:100EBA004D260A128A1123300A128A1162240A1252
:100ECA008A11C73083120313C4006B2FC40B6A2F15
:100EDA006E2F0930F40001300A128A11C0250A1255
:100EEA008A111D3083120313B7002208C400C501FA
:100EFA004408B8004508B90023300A128A114D2661
:100F0A000A128A1123300A128A1162240A128A11D9
:100F1A00C73083120313C400922FC40B912F952F4D
:100F2A00831203130715023083120313C6004530D8
:100F3A00C500A930C400C40BA02FC50BA02FC60B37
:100F4A00A02F83120313871001300A128A11ED238E
:100F5A000A128A110A128A1102240A128A118312A7
:100F6A000313A000F401F40A02300A128A11C02500
:100F7A000A128A11143083120313B7002008C4001E
:100F8A00C5014408B8004508B90023300A128A117D
:100F9A004D260A128A1123300A128A1162240A1271
:100FAA008A11C73083120313C400DB2FC40BDA2F54
:100FBA00DE2F831203138714023083120313C60031
:100FCA004530C500A930C400C40BE92FC50BE92F71
:100FDA00C60BE92F182F0A128A1100288313203012
:100FEA00840037300A128A11FA230A128A118301FD
:060FFA000A128A110E2FFD
:08400000FF3FFF3FFF3FFF3FC0
:04400E00D420FF3F7C
:00000001FF
