:060000000A128A110C280F
:10000800FE00030EF1000A08F2000A128A11852880
:100018000A128A110F28F801F901FA018312031351
:10002800A001A101A201A30183010A128A111C28BF
:100038000A128A11D9200A128A1140300A128A112A
:1000480010210A128A1100300A128A11B2200A12EB
:100058008A117308FA000D3083120313A500FB30D0
:10006800A400A40B3528A50B352883120313061802
:100078003E283F2843280130A2000030A300061C78
:10008800462847285E2822032304031D4C284D28B0
:100098005E280D3083120313A500FB30A400A40BC7
:1000A8005328A50B53287908013EF900831203133E
:1000B800A201A30186186128622866280130A000E1
:1000C8000030A100861C69286A28272820032104FB
:1000D800031D6F28702827280D3083120313A500ED
:1000E800FB30A400A40B7628A50B76287908FF3EE0
:1000F800F90083120313A001A10127280A128A110B
:100108000C28831203138C1D8A288B28AB280A120B
:100118008A1119210A128A11F8007803031D9528FB
:1001280096289D287A080A128A1129210A128A110A
:10013800A8287808031DA128A228A82879080A1247
:100148008A1129210A128A11831203138C11720849
:100158008A00710E8300FE0E7E0E0900F7000E3035
:100168007702031CB828B928BC28F301F401D82861
:100178004030831203139F007708F5000130031005
:10018800F50DFF3E031DC3280310750D9F001F14B6
:100198009F149F18D028D128CD281E08F500F601F5
:1001A8007508F3007608F400080083160317880121
:1001B8008901033083160313860083120313860113
:1001C800F901A201A301A001A1018B170B178C1142
:1001D800831603138C158516F301F401F5012430F9
:1001E8000A128A11FA200A128A110800F6008316E8
:1001F80003138712761D0129022906297508940020
:1002080087150A2973087504940087117608740401
:100218008312031394000800F300831603139F014D
:100228007308831203139F0008000A128A112221FF
:100238000A128A1183120313130808008316031382
:10024800141C2729282922290800F0007008831285
:06025800031393000800EF
:08400000FF3FFF3FFF3FFF3FC0
:04400E00D420FF3F7C
:00000001FF
