:060000000A128A110C280F
:10000800FE00030EF1000A08F2000A128A115D28A8
:100018000A128A110F28F801F90183010A128A11BC
:100028003C28F7000E307702031C1B281C281F28C9
:10003800F301F4013B284030831203139F00770833
:10004800F50001300310F50DFF3E031D26280310AF
:10005800750D9F001F149F149F18332834283028CB
:100068001E08F500F6017508F3007608F40008008C
:100078000A128A117E200A128A1140300A128A1145
:10008800B1200A128A1100300A128A1115200A12A8
:100098008A117308F9000D3083120313A100FB3095
:1000A800A000A00B5528A10B552847280A128A1131
:1000B8000C28831203138C1D6228632877280A12E0
:1000C8008A11BA200A128A11F8007803031D6D28D4
:1000D8006E28772879080A128A11CA200A128A110A
:1000E800831203138C1172088A00710E8300FE0EAE
:1000F8007E0E0900831603178801890183160313EE
:100108008601880183120313860188018B170B1758
:100118008C11831603138C158516F301F401F50170
:1001280024300A128A119B200A128A110800F6004C
:10013800831603138712761DA228A328A7287508FB
:1001480094008715AB287308750494008711760806
:1001580074048312031394000800F3008316031336
:100168009F017308831203139F0008000A128A1163
:10017800C3200A128A118312031313080800831676
:100188000313141CC828C928C3280800F0007008E5
:08019800831203139300080019
:08400000FF3FFF3FFF3FFF3FC0
:04400E00D420FF3F7C
:00000001FF
